{
  "_format": "hh-sol-artifact-1",
  "contractName": "VoteFactory",
  "sourceName": "contracts/VoteFactory.sol",
  "abi": [
    {
      "inputs": [],
      "stateMutability": "nonpayable",
      "type": "constructor"
    },
    {
      "anonymous": false,
      "inputs": [
        {
          "indexed": true,
          "internalType": "address",
          "name": "voterAddress",
          "type": "address"
        },
        {
          "indexed": false,
          "internalType": "uint256",
          "name": "pollID",
          "type": "uint256"
        }
      ],
      "name": "AddVoter",
      "type": "event"
    },
    {
      "anonymous": false,
      "inputs": [
        {
          "indexed": false,
          "internalType": "uint256",
          "name": "pollID",
          "type": "uint256"
        },
        {
          "indexed": true,
          "internalType": "address",
          "name": "creator",
          "type": "address"
        },
        {
          "indexed": false,
          "internalType": "string",
          "name": "proposal",
          "type": "string"
        },
        {
          "indexed": false,
          "internalType": "string",
          "name": "pollName",
          "type": "string"
        }
      ],
      "name": "CreatPoll",
      "type": "event"
    },
    {
      "anonymous": false,
      "inputs": [
        {
          "indexed": true,
          "internalType": "address",
          "name": "voter",
          "type": "address"
        },
        {
          "indexed": false,
          "internalType": "uint256",
          "name": "pollID",
          "type": "uint256"
        }
      ],
      "name": "DoVote",
      "type": "event"
    },
    {
      "anonymous": false,
      "inputs": [
        {
          "indexed": false,
          "internalType": "uint256",
          "name": "pollID",
          "type": "uint256"
        },
        {
          "indexed": false,
          "internalType": "uint256",
          "name": "finalResult",
          "type": "uint256"
        }
      ],
      "name": "EndVote",
      "type": "event"
    },
    {
      "anonymous": false,
      "inputs": [
        {
          "indexed": false,
          "internalType": "uint256",
          "name": "pollID",
          "type": "uint256"
        }
      ],
      "name": "StartVote",
      "type": "event"
    },
    {
      "inputs": [
        {
          "internalType": "address",
          "name": "_voterAddress",
          "type": "address"
        },
        {
          "internalType": "uint256",
          "name": "pollID",
          "type": "uint256"
        }
      ],
      "name": "addVoter",
      "outputs": [],
      "stateMutability": "nonpayable",
      "type": "function"
    },
    {
      "inputs": [],
      "name": "contractOwner",
      "outputs": [
        {
          "internalType": "address",
          "name": "",
          "type": "address"
        }
      ],
      "stateMutability": "view",
      "type": "function"
    },
    {
      "inputs": [
        {
          "internalType": "string",
          "name": "pollName",
          "type": "string"
        },
        {
          "internalType": "string",
          "name": "proposal",
          "type": "string"
        }
      ],
      "name": "createPoll",
      "outputs": [],
      "stateMutability": "nonpayable",
      "type": "function"
    },
    {
      "inputs": [
        {
          "internalType": "bool",
          "name": "_choice",
          "type": "bool"
        },
        {
          "internalType": "uint256",
          "name": "pollID",
          "type": "uint256"
        }
      ],
      "name": "doVote",
      "outputs": [],
      "stateMutability": "nonpayable",
      "type": "function"
    },
    {
      "inputs": [
        {
          "internalType": "uint256",
          "name": "pollID",
          "type": "uint256"
        }
      ],
      "name": "endVote",
      "outputs": [],
      "stateMutability": "nonpayable",
      "type": "function"
    },
    {
      "inputs": [],
      "name": "getListPollWithID",
      "outputs": [
        {
          "components": [
            {
              "internalType": "uint256",
              "name": "countResult",
              "type": "uint256"
            },
            {
              "internalType": "uint256",
              "name": "finalResult",
              "type": "uint256"
            },
            {
              "internalType": "uint256",
              "name": "totalVoter",
              "type": "uint256"
            },
            {
              "internalType": "uint256",
              "name": "totalVote",
              "type": "uint256"
            },
            {
              "internalType": "string",
              "name": "PollName",
              "type": "string"
            },
            {
              "internalType": "string",
              "name": "proposal",
              "type": "string"
            },
            {
              "internalType": "enum VoteFactory.State",
              "name": "state",
              "type": "uint8"
            }
          ],
          "internalType": "struct VoteFactory.Poll[]",
          "name": "",
          "type": "tuple[]"
        }
      ],
      "stateMutability": "view",
      "type": "function"
    },
    {
      "inputs": [],
      "name": "pollCount",
      "outputs": [
        {
          "internalType": "uint256",
          "name": "",
          "type": "uint256"
        }
      ],
      "stateMutability": "view",
      "type": "function"
    },
    {
      "inputs": [
        {
          "internalType": "uint256",
          "name": "",
          "type": "uint256"
        },
        {
          "internalType": "uint256",
          "name": "",
          "type": "uint256"
        }
      ],
      "name": "pollIDToListVote",
      "outputs": [
        {
          "internalType": "address",
          "name": "voterAddress",
          "type": "address"
        },
        {
          "internalType": "bool",
          "name": "choice",
          "type": "bool"
        }
      ],
      "stateMutability": "view",
      "type": "function"
    },
    {
      "inputs": [
        {
          "internalType": "uint256",
          "name": "",
          "type": "uint256"
        },
        {
          "internalType": "uint256",
          "name": "",
          "type": "uint256"
        }
      ],
      "name": "pollIDToListVoter",
      "outputs": [
        {
          "internalType": "address",
          "name": "voterAddress",
          "type": "address"
        },
        {
          "internalType": "bool",
          "name": "voted",
          "type": "bool"
        }
      ],
      "stateMutability": "view",
      "type": "function"
    },
    {
      "inputs": [
        {
          "internalType": "uint256",
          "name": "",
          "type": "uint256"
        }
      ],
      "name": "pollIDToPoll",
      "outputs": [
        {
          "internalType": "uint256",
          "name": "countResult",
          "type": "uint256"
        },
        {
          "internalType": "uint256",
          "name": "finalResult",
          "type": "uint256"
        },
        {
          "internalType": "uint256",
          "name": "totalVoter",
          "type": "uint256"
        },
        {
          "internalType": "uint256",
          "name": "totalVote",
          "type": "uint256"
        },
        {
          "internalType": "string",
          "name": "PollName",
          "type": "string"
        },
        {
          "internalType": "string",
          "name": "proposal",
          "type": "string"
        },
        {
          "internalType": "enum VoteFactory.State",
          "name": "state",
          "type": "uint8"
        }
      ],
      "stateMutability": "view",
      "type": "function"
    },
    {
      "inputs": [
        {
          "internalType": "uint256",
          "name": "",
          "type": "uint256"
        }
      ],
      "name": "polls",
      "outputs": [
        {
          "internalType": "uint256",
          "name": "countResult",
          "type": "uint256"
        },
        {
          "internalType": "uint256",
          "name": "finalResult",
          "type": "uint256"
        },
        {
          "internalType": "uint256",
          "name": "totalVoter",
          "type": "uint256"
        },
        {
          "internalType": "uint256",
          "name": "totalVote",
          "type": "uint256"
        },
        {
          "internalType": "string",
          "name": "PollName",
          "type": "string"
        },
        {
          "internalType": "string",
          "name": "proposal",
          "type": "string"
        },
        {
          "internalType": "enum VoteFactory.State",
          "name": "state",
          "type": "uint8"
        }
      ],
      "stateMutability": "view",
      "type": "function"
    },
    {
      "inputs": [
        {
          "internalType": "uint256",
          "name": "pollID",
          "type": "uint256"
        }
      ],
      "name": "startVote",
      "outputs": [],
      "stateMutability": "nonpayable",
      "type": "function"
    }
  ],
  "bytecode": "0x608060405234801561001057600080fd5b5033600160006101000a81548173ffffffffffffffffffffffffffffffffffffffff021916908373ffffffffffffffffffffffffffffffffffffffff160217905550612525806100616000396000f3fe608060405234801561001057600080fd5b50600436106100b45760003560e01c80639207891d116100715780639207891d1461019057806398dea034146101ae578063a3a35246146101df578063ac2f0074146101fd578063b9f05f2f14610233578063ce606ee01461024f576100b4565b806304710b66146100b95780631f4ca0d4146100d55780633f22052414610106578063569b9cc714610122578063865df0ad1461013e5780638930b1ca1461015a575b600080fd5b6100d360048036038101906100ce919061188e565b61026d565b005b6100ef60048036038101906100ea919061193c565b610554565b6040516100fd9291906119d8565b60405180910390f35b610120600480360381019061011b9190611a01565b6105be565b005b61013c60048036038101906101379190611a5a565b610755565b005b61015860048036038101906101539190611a01565b610b63565b005b610174600480360381019061016f9190611a01565b610d43565b6040516101879796959493929190611b9f565b60405180910390f35b610198610ea2565b6040516101a59190611c1c565b60405180910390f35b6101c860048036038101906101c3919061193c565b610ea8565b6040516101d69291906119d8565b60405180910390f35b6101e7610f12565b6040516101f49190611e04565b60405180910390f35b61021760048036038101906102129190611a01565b611167565b60405161022a9796959493929190611b9f565b60405180910390f35b61024d60048036038101906102489190611e52565b6112d6565b005b61025761165b565b6040516102649190611e92565b60405180910390f35b600160009054906101000a900473ffffffffffffffffffffffffffffffffffffffff1673ffffffffffffffffffffffffffffffffffffffff163373ffffffffffffffffffffffffffffffffffffffff16146102fd576040517f08c379a00000000000000000000000000000000000000000000000000000000081526004016102f490611ef9565b60405180910390fd5b610305611681565b6000816000018181525050600081602001818152505060008160400181815250506000816060018181525050828160800181905250818160a0018190525060008160c00190600281111561035c5761035b611b28565b5b908160028111156103705761036f611b28565b5b8152505060008081548092919061038690611f48565b91905055508060046000805481526020019081526020016000206000820151816000015560208201518160010155604082015181600201556060820151816003015560808201518160040190816103dd919061219c565b5060a08201518160050190816103f3919061219c565b5060c08201518160060160006101000a81548160ff0219169083600281111561041f5761041e611b28565b5b02179055509050506005819080600181540180825580915050600190039060005260206000209060070201600090919091909150600082015181600001556020820151816001015560408201518160020155606082015181600301556080820151816004019081610490919061219c565b5060a08201518160050190816104a6919061219c565b5060c08201518160060160006101000a81548160ff021916908360028111156104d2576104d1611b28565b5b02179055505050600160009054906101000a900473ffffffffffffffffffffffffffffffffffffffff1673ffffffffffffffffffffffffffffffffffffffff167f36b9927ff5193f4503e3ca7c991fc15ae5c83b613d7d975c5c84545ca624c47460005484866040516105479392919061226e565b60405180910390a2505050565b6002602052816000526040600020818154811061057057600080fd5b90600052602060002001600091509150508060000160009054906101000a900473ffffffffffffffffffffffffffffffffffffffff16908060000160149054906101000a900460ff16905082565b6000818160028111156105d4576105d3611b28565b5b6004600083815260200190815260200160002060060160009054906101000a900460ff16600281111561060a57610609611b28565b5b1461064a576040517f08c379a0000000000000000000000000000000000000000000000000000000008152600401610641906122ff565b60405180910390fd5b600160009054906101000a900473ffffffffffffffffffffffffffffffffffffffff1673ffffffffffffffffffffffffffffffffffffffff163373ffffffffffffffffffffffffffffffffffffffff16146106da576040517f08c379a00000000000000000000000000000000000000000000000000000000081526004016106d190611ef9565b60405180910390fd5b60016004600085815260200190815260200160002060060160006101000a81548160ff0219169083600281111561071457610713611b28565b5b02179055507f33c2d6285ba1442f7dd954820743aacec7468bc52e1671024b948f48f1322640836040516107489190611c1c565b60405180910390a1505050565b60018181600281111561076b5761076a611b28565b5b6004600083815260200190815260200160002060060160009054906101000a900460ff1660028111156107a1576107a0611b28565b5b146107e1576040517f08c379a00000000000000000000000000000000000000000000000000000000081526004016107d8906122ff565b60405180910390fd5b60008080600090505b60036000878152602001908152602001600020805490508110156108a8573373ffffffffffffffffffffffffffffffffffffffff166003600088815260200190815260200160002082815481106108445761084361231f565b5b9060005260206000200160000160009054906101000a900473ffffffffffffffffffffffffffffffffffffffff1673ffffffffffffffffffffffffffffffffffffffff160361089557600192508091505b80806108a090611f48565b9150506107ea565b5060011515821515146108f0576040517f08c379a00000000000000000000000000000000000000000000000000000000081526004016108e79061239a565b60405180910390fd5b6003600086815260200190815260200160002081815481106109155761091461231f565b5b9060005260206000200160000160149054906101000a900460ff1615610970576040517f08c379a000000000000000000000000000000000000000000000000000000000815260040161096790612406565b60405180910390fd5b60016003600087815260200190815260200160002082815481106109975761099661231f565b5b9060005260206000200160000160146101000a81548160ff02191690831515021790555085156109ee576004600086815260200190815260200160002060000160008154809291906109e890611f48565b91905055505b6109f66116d0565b33816000019073ffffffffffffffffffffffffffffffffffffffff16908173ffffffffffffffffffffffffffffffffffffffff16815250508681602001901515908115158152505060026000878152602001908152602001600020819080600181540180825580915050600190039060005260206000200160009091909190915060008201518160000160006101000a81548173ffffffffffffffffffffffffffffffffffffffff021916908373ffffffffffffffffffffffffffffffffffffffff16021790555060208201518160000160146101000a81548160ff0219169083151502179055505050600460008781526020019081526020016000206003016000815480929190610b0790611f48565b91905055503373ffffffffffffffffffffffffffffffffffffffff167f731b4642005b8ed56bdd191a72d071e583d449edc0bebf2e317d73461ee93c4587604051610b529190611c1c565b60405180910390a250505050505050565b600181816002811115610b7957610b78611b28565b5b6004600083815260200190815260200160002060060160009054906101000a900460ff166002811115610baf57610bae611b28565b5b14610bef576040517f08c379a0000000000000000000000000000000000000000000000000000000008152600401610be6906122ff565b60405180910390fd5b600160009054906101000a900473ffffffffffffffffffffffffffffffffffffffff1673ffffffffffffffffffffffffffffffffffffffff163373ffffffffffffffffffffffffffffffffffffffff1614610c7f576040517f08c379a0000000000000000000000000000000000000000000000000000000008152600401610c7690611ef9565b60405180910390fd5b60026004600085815260200190815260200160002060060160006101000a81548160ff02191690836002811115610cb957610cb8611b28565b5b0217905550600460008481526020019081526020016000206000015460046000858152602001908152602001600020600101819055507f7414cef146736256ae6acb00f67446e8c4f2166f5f67750320a75172d3b72ac3836004600086815260200190815260200160002060010154604051610d36929190612426565b60405180910390a1505050565b6004602052806000526040600020600091509050806000015490806001015490806002015490806003015490806004018054610d7e90611fbf565b80601f0160208091040260200160405190810160405280929190818152602001828054610daa90611fbf565b8015610df75780601f10610dcc57610100808354040283529160200191610df7565b820191906000526020600020905b815481529060010190602001808311610dda57829003601f168201915b505050505090806005018054610e0c90611fbf565b80601f0160208091040260200160405190810160405280929190818152602001828054610e3890611fbf565b8015610e855780601f10610e5a57610100808354040283529160200191610e85565b820191906000526020600020905b815481529060010190602001808311610e6857829003601f168201915b5050505050908060060160009054906101000a900460ff16905087565b60005481565b60036020528160005260406000208181548110610ec457600080fd5b90600052602060002001600091509150508060000160009054906101000a900473ffffffffffffffffffffffffffffffffffffffff16908060000160149054906101000a900460ff16905082565b60606000805467ffffffffffffffff811115610f3157610f30611763565b5b604051908082528060200260200182016040528015610f6a57816020015b610f57611681565b815260200190600190039081610f4f5790505b5090506000600190505b600054811161115f57600460008281526020019081526020016000206040518060e001604052908160008201548152602001600182015481526020016002820154815260200160038201548152602001600482018054610fd390611fbf565b80601f0160208091040260200160405190810160405280929190818152602001828054610fff90611fbf565b801561104c5780601f106110215761010080835404028352916020019161104c565b820191906000526020600020905b81548152906001019060200180831161102f57829003601f168201915b5050505050815260200160058201805461106590611fbf565b80601f016020809104026020016040519081016040528092919081815260200182805461109190611fbf565b80156110de5780601f106110b3576101008083540402835291602001916110de565b820191906000526020600020905b8154815290600101906020018083116110c157829003601f168201915b505050505081526020016006820160009054906101000a900460ff16600281111561110c5761110b611b28565b5b600281111561111e5761111d611b28565b5b8152505082600183611130919061244f565b815181106111415761114061231f565b5b6020026020010181905250808061115790611f48565b915050610f74565b508091505090565b6005818154811061117757600080fd5b90600052602060002090600702016000915090508060000154908060010154908060020154908060030154908060040180546111b290611fbf565b80601f01602080910402602001604051908101604052809291908181526020018280546111de90611fbf565b801561122b5780601f106112005761010080835404028352916020019161122b565b820191906000526020600020905b81548152906001019060200180831161120e57829003601f168201915b50505050509080600501805461124090611fbf565b80601f016020809104026020016040519081016040528092919081815260200182805461126c90611fbf565b80156112b95780601f1061128e576101008083540402835291602001916112b9565b820191906000526020600020905b81548152906001019060200180831161129c57829003601f168201915b5050505050908060060160009054906101000a900460ff16905087565b6000818160028111156112ec576112eb611b28565b5b6004600083815260200190815260200160002060060160009054906101000a900460ff16600281111561132257611321611b28565b5b14611362576040517f08c379a0000000000000000000000000000000000000000000000000000000008152600401611359906122ff565b60405180910390fd5b600160009054906101000a900473ffffffffffffffffffffffffffffffffffffffff1673ffffffffffffffffffffffffffffffffffffffff163373ffffffffffffffffffffffffffffffffffffffff16146113f2576040517f08c379a00000000000000000000000000000000000000000000000000000000081526004016113e990611ef9565b60405180910390fd5b60005b60036000858152602001908152602001600020805490508110156114e6578473ffffffffffffffffffffffffffffffffffffffff1660036000868152602001908152602001600020828154811061144f5761144e61231f565b5b9060005260206000200160000160009054906101000a900473ffffffffffffffffffffffffffffffffffffffff1673ffffffffffffffffffffffffffffffffffffffff16036114d3576040517f08c379a00000000000000000000000000000000000000000000000000000000081526004016114ca906124cf565b60405180910390fd5b80806114de90611f48565b9150506113f5565b506114ef611702565b84816000019073ffffffffffffffffffffffffffffffffffffffff16908173ffffffffffffffffffffffffffffffffffffffff1681525050600081602001901515908115158152505060036000858152602001908152602001600020819080600181540180825580915050600190039060005260206000200160009091909190915060008201518160000160006101000a81548173ffffffffffffffffffffffffffffffffffffffff021916908373ffffffffffffffffffffffffffffffffffffffff16021790555060208201518160000160146101000a81548160ff021916908315150217905550505060046000858152602001908152602001600020600201600081548092919061160190611f48565b91905055508473ffffffffffffffffffffffffffffffffffffffff167fd4cb7e3b57371ab8d25a872708406426b62afc7b1140ac34b020c267cb68a8148560405161164c9190611c1c565b60405180910390a25050505050565b600160009054906101000a900473ffffffffffffffffffffffffffffffffffffffff1681565b6040518060e00160405280600081526020016000815260200160008152602001600081526020016060815260200160608152602001600060028111156116ca576116c9611b28565b5b81525090565b6040518060400160405280600073ffffffffffffffffffffffffffffffffffffffff1681526020016000151581525090565b6040518060400160405280600073ffffffffffffffffffffffffffffffffffffffff1681526020016000151581525090565b6000604051905090565b600080fd5b600080fd5b600080fd5b600080fd5b6000601f19601f8301169050919050565b7f4e487b7100000000000000000000000000000000000000000000000000000000600052604160045260246000fd5b61179b82611752565b810181811067ffffffffffffffff821117156117ba576117b9611763565b5b80604052505050565b60006117cd611734565b90506117d98282611792565b919050565b600067ffffffffffffffff8211156117f9576117f8611763565b5b61180282611752565b9050602081019050919050565b82818337600083830152505050565b600061183161182c846117de565b6117c3565b90508281526020810184848401111561184d5761184c61174d565b5b61185884828561180f565b509392505050565b600082601f83011261187557611874611748565b5b813561188584826020860161181e565b91505092915050565b600080604083850312156118a5576118a461173e565b5b600083013567ffffffffffffffff8111156118c3576118c2611743565b5b6118cf85828601611860565b925050602083013567ffffffffffffffff8111156118f0576118ef611743565b5b6118fc85828601611860565b9150509250929050565b6000819050919050565b61191981611906565b811461192457600080fd5b50565b60008135905061193681611910565b92915050565b600080604083850312156119535761195261173e565b5b600061196185828601611927565b925050602061197285828601611927565b9150509250929050565b600073ffffffffffffffffffffffffffffffffffffffff82169050919050565b60006119a78261197c565b9050919050565b6119b78161199c565b82525050565b60008115159050919050565b6119d2816119bd565b82525050565b60006040820190506119ed60008301856119ae565b6119fa60208301846119c9565b9392505050565b600060208284031215611a1757611a1661173e565b5b6000611a2584828501611927565b91505092915050565b611a37816119bd565b8114611a4257600080fd5b50565b600081359050611a5481611a2e565b92915050565b60008060408385031215611a7157611a7061173e565b5b6000611a7f85828601611a45565b9250506020611a9085828601611927565b9150509250929050565b611aa381611906565b82525050565b600081519050919050565b600082825260208201905092915050565b60005b83811015611ae3578082015181840152602081019050611ac8565b60008484015250505050565b6000611afa82611aa9565b611b048185611ab4565b9350611b14818560208601611ac5565b611b1d81611752565b840191505092915050565b7f4e487b7100000000000000000000000000000000000000000000000000000000600052602160045260246000fd5b60038110611b6857611b67611b28565b5b50565b6000819050611b7982611b57565b919050565b6000611b8982611b6b565b9050919050565b611b9981611b7e565b82525050565b600060e082019050611bb4600083018a611a9a565b611bc16020830189611a9a565b611bce6040830188611a9a565b611bdb6060830187611a9a565b8181036080830152611bed8186611aef565b905081810360a0830152611c018185611aef565b9050611c1060c0830184611b90565b98975050505050505050565b6000602082019050611c316000830184611a9a565b92915050565b600081519050919050565b600082825260208201905092915050565b6000819050602082019050919050565b611c6c81611906565b82525050565b600082825260208201905092915050565b6000611c8e82611aa9565b611c988185611c72565b9350611ca8818560208601611ac5565b611cb181611752565b840191505092915050565b611cc581611b7e565b82525050565b600060e083016000830151611ce36000860182611c63565b506020830151611cf66020860182611c63565b506040830151611d096040860182611c63565b506060830151611d1c6060860182611c63565b5060808301518482036080860152611d348282611c83565b91505060a083015184820360a0860152611d4e8282611c83565b91505060c0830151611d6360c0860182611cbc565b508091505092915050565b6000611d7a8383611ccb565b905092915050565b6000602082019050919050565b6000611d9a82611c37565b611da48185611c42565b935083602082028501611db685611c53565b8060005b85811015611df25784840389528151611dd38582611d6e565b9450611dde83611d82565b925060208a01995050600181019050611dba565b50829750879550505050505092915050565b60006020820190508181036000830152611e1e8184611d8f565b905092915050565b611e2f8161199c565b8114611e3a57600080fd5b50565b600081359050611e4c81611e26565b92915050565b60008060408385031215611e6957611e6861173e565b5b6000611e7785828601611e3d565b9250506020611e8885828601611927565b9150509250929050565b6000602082019050611ea760008301846119ae565b92915050565b7f596f75206d75737420626520636f6e7472616374206f776e6572210000000000600082015250565b6000611ee3601b83611ab4565b9150611eee82611ead565b602082019050919050565b60006020820190508181036000830152611f1281611ed6565b9050919050565b7f4e487b7100000000000000000000000000000000000000000000000000000000600052601160045260246000fd5b6000611f5382611906565b91507fffffffffffffffffffffffffffffffffffffffffffffffffffffffffffffffff8203611f8557611f84611f19565b5b600182019050919050565b7f4e487b7100000000000000000000000000000000000000000000000000000000600052602260045260246000fd5b60006002820490506001821680611fd757607f821691505b602082108103611fea57611fe9611f90565b5b50919050565b60008190508160005260206000209050919050565b60006020601f8301049050919050565b600082821b905092915050565b6000600883026120527fffffffffffffffffffffffffffffffffffffffffffffffffffffffffffffffff82612015565b61205c8683612015565b95508019841693508086168417925050509392505050565b6000819050919050565b600061209961209461208f84611906565b612074565b611906565b9050919050565b6000819050919050565b6120b38361207e565b6120c76120bf826120a0565b848454612022565b825550505050565b600090565b6120dc6120cf565b6120e78184846120aa565b505050565b5b8181101561210b576121006000826120d4565b6001810190506120ed565b5050565b601f8211156121505761212181611ff0565b61212a84612005565b81016020851015612139578190505b61214d61214585612005565b8301826120ec565b50505b505050565b600082821c905092915050565b600061217360001984600802612155565b1980831691505092915050565b600061218c8383612162565b9150826002028217905092915050565b6121a582611aa9565b67ffffffffffffffff8111156121be576121bd611763565b5b6121c88254611fbf565b6121d382828561210f565b600060209050601f83116001811461220657600084156121f4578287015190505b6121fe8582612180565b865550612266565b601f19841661221486611ff0565b60005b8281101561223c57848901518255600182019150602085019450602081019050612217565b868310156122595784890151612255601f891682612162565b8355505b6001600288020188555050505b505050505050565b60006060820190506122836000830186611a9a565b81810360208301526122958185611aef565b905081810360408301526122a98184611aef565b9050949350505050565b7f57726f6e67207374617465210000000000000000000000000000000000000000600082015250565b60006122e9600c83611ab4565b91506122f4826122b3565b602082019050919050565b60006020820190508181036000830152612318816122dc565b9050919050565b7f4e487b7100000000000000000000000000000000000000000000000000000000600052603260045260246000fd5b7f566f7465722061646472657373206973206e6f74206164646564207965742100600082015250565b6000612384601f83611ab4565b915061238f8261234e565b602082019050919050565b600060208201905081810360008301526123b381612377565b9050919050565b7f616c726561647920766f74656421000000000000000000000000000000000000600082015250565b60006123f0600e83611ab4565b91506123fb826123ba565b602082019050919050565b6000602082019050818103600083015261241f816123e3565b9050919050565b600060408201905061243b6000830185611a9a565b6124486020830184611a9a565b9392505050565b600061245a82611906565b915061246583611906565b925082820390508181111561247d5761247c611f19565b5b92915050565b7f416c726561647920616464656400000000000000000000000000000000000000600082015250565b60006124b9600d83611ab4565b91506124c482612483565b602082019050919050565b600060208201905081810360008301526124e8816124ac565b905091905056fea2646970667358221220cb9ed33501aa9fbb135e765df06a6e45380a21d42bfc4701e7a468e3825d7be864736f6c63430008110033",
  "linkReferences": {},
  "deployedLinkReferences": {}
}